:020000040000FA
:0600000033EF02F01200D4
:020006000000F8
:0600080025EF00F01200DC
:02000E001200DE
:0600180090EF00F0120061
:02001E000001DF
:10002000646B8980899289948996899805D814D9B6
:1000300024D900D9FFD712008F0ED3142809D36E0C
:10004000926A936A180E946E1200DACFE4FFE2CF40
:10005000DAFFE9CFE4FFEACFE4FFF6CFE4FFF7CF22
:10006000E4FFF5CFE4FFF3CFE4FFF4CFE4FFFACFF2
:10007000E4FF00EE02F0020EE80403E3EECFE4FF3B
:10008000FBD700EE04F0020EE80403E3EECFE4FF3A
:10009000FBD7E6529E9641EC02F00001636F63517C
:1000A00005E1898289948996899816D0630505E1CE
:1000B00089928984899689980FD0020E635D05E143
:1000C000899289948986899807D0030E635D04E13B
:1000D0008992899489968988E55200EE05F0020E8E
:1000E000E80403E3E5CFEDFFFBD700EE03F0020EDB
:1000F000E80403E3E5CFEDFFFBD7E5CFFAFFE5CF5B
:10010000F4FFE5CFF3FFE5CFF5FFE5CFF7FFE5CF50
:10011000F6FFE5CFEAFFE5CFE9FFE5CFDAFF110013
:10012000D8CFE4FFE0CFE4FFE46EDACFE4FFE2CF24
:10013000DAFFE9CFE4FFEACFE4FFF6CFE4FFF7CF41
:10014000E4FFF5CFE4FFF3CFE4FFF4CFE4FFFACF11
:10015000E4FF00EE02F0020EE80403E3EECFE4FF5A
:10016000FBD700EE04F0020EE80403E3EECFE4FF59
:10017000FBD7E6529E9089700001645116E063C07F
:1001800060F0616B60BF616960C000F061C001F048
:10019000FF0ED8800056015600C0E6FF01C0E6FF02
:1001A00007EC02F0E552E55215D060C000F061C0E6
:1001B00001F0100ED8800056270E0156FF0ED88091
:1001C0000056015600C0E6FF01C0E6FF07EC02F052
:1001D000E552E5520001645102E0000E01D0010E2B
:1001E000646FE55200EE05F0020EE80403E3E5CF8C
:1001F000EDFFFBD700EE03F0020EE80403E3E5CFCA
:10020000EDFFFBD7E5CFFAFFE5CFF4FFE5CFF3FF36
:10021000E5CFF5FFE5CFF7FFE5CFF6FFE5CFEAFF46
:10022000E5CFE9FFE5CFDAFFE550E5CFE0FFE5CF29
:10023000D8FF1000CD90C50EE66EE6EC01F0E55259
:10024000D08E9F909D80E66AF00EE66E07EC02F07D
:10025000E552E552CD801200C690C682C684C6968D
:10026000FE0EC86E9D869F86F28CF28EF40EE66EB0
:1002700023EC02F0E552C68A12000C0EAF6EC00EDF
:100280009410946EAC98AB8EAC9CB898B886AC8A3F
:100290001200D9CFE6FFE1CFD9FF030EE126010E10
:1002A000DB6A020EDB6A010EDBCF04F0DB2A020EF2
:1002B000DBCF05F001E3DB2AFD0EDB500424E96E01
:1002C000FE0EDB500520EA6EEFCFDFFFDF50AD6E94
:1002D000050EE66E23EC02F0E552010EDBCF04F0D2
:1002E000020EDBCF05F0FD0EDB500424E96EFE0E9E
:1002F000DB500520EA6EEF50D6E1030EE15C02E22E
:10030000E16AE552E16EE552E7CFD9FF1200D9CF9D
:10031000E6FFE1CFD9FFFE0EDB50AD6E050EE66EB7
:0E03200023EC02F0E552E552E7CFD9FF1200C0
:02032E00060EB9
:10033000F66E000EF76E000EF86E00010900F55023
:100340007A6F0900F5507B6F03E17A6701D03DD0E9
:100350000900F550756F0900F550766F0900F550EA
:10036000776F09000900F550E96E0900F550EA6E53
:10037000090009000900F550786F0900F550796F00
:1003800009000900F6CF7CF0F7CF7DF0F8CF7EF0C2
:1003900075C0F6FF76C0F7FF77C0F8FF000178530D
:1003A00002E1795307E00900F550EE6E7807F8E2B4
:1003B0007907F9D77CC0F6FF7DC0F7FF7EC0F8FF54
:0C03C00000017A07000E7B5BBFD7120023
:0403CC00D9CFE6FFA0
:1003D000DACFE6FFE1CFD9FFE2CFDAFFFD0EDB5047
:1003E0007E0BCD6EFD0EDBAC02D0CD8E01D0CD9E4E
:1003F000CF6ACE6A9E90DBAE02D09D8001D09D90E8
:0E040000CD80E552E5CFDAFFE7CFD9FF12003D
:02040E00D9CF44
:10041000E6FFDACFE6FFE1CFD9FFE2CFDAFFE6521F
:10042000E652FC0EDBCFDEFFDBCFDDFF010EDB5043
:10043000CF6EDF50CE6EE552E552E552E5CFDAFFE2
:06044000E7CFD9FF120016
:0A044600FF0EE350066E480E01D0D1
:100450004C0EE76EE72EFED7E76AE72EFED7062E94
:06046000F7D700001200B6
:0A04660015EE00F025EE00F0F86A34
:10047000039C97EC01F007EC00F00FEC00F0FBD7C9
:02048000120068
:0E0482000F0EC614080804E00F0EC6140B0877
:0C04900001E1C586C7A0FED7C9501200CC
:04049C0000EE00F07E
:0A04A0000F0EEE6AEA62FDD71200AB
:020000040030CA
:0100010008F6
:010006008178
:00000001FF
