:020000040000FA
:06000000E0EF00F0120029
:02002A000000D4
:04002C009268936AD9
:100030009384806A816A1200D9CFE6FFE1CFD9FFAD
:10004000020EE126DE6ADD6ADECF0BF0DDCF0CF0BA
:10005000FD0EDBCF0DF0FE0EDBCF0EF00E500C18B8
:10006000E8AE02D00C3404D00B500D5C0C500E588E
:1000700005E3DF2A010E01E3DB2AE6D7020EE15C8D
:1000800002E2E16AE552E16EE552E7CFD9FF1200E4
:10009000D9CFE6FFE1CFD9FF0F0EE126210EDE6EAC
:1000A000DD6AC4DF066A076A060E06C0DBFF070EBC
:1000B00007C0DBFF040E06C0DBFF050E07C0DBFF39
:1000C000020E06C0DBFF030E07C0DBFF100EE66E5C
:1000D000270EE66EB1DFE552E552FC0E8114E76EA5
:1000E0000C0EE7CFDBFFDB500109816E100EE66ED0
:1000F000270EE66EA1DFE552E552FC0E8114E76E95
:100100000C0EE7CFDBFFDB500209816EDFD70F0E4D
:10011000E15C02E2E16AE552E16EE552E7CFD9FF28
:020120001200CB
:0E0122002A0EF66E000EF76E000EF86E00014B
:100130000900F550C56F0900F550C66F03E1C567AA
:1001400001D03DD00900F550C06F0900F550C16FD6
:100150000900F550C26F09000900F550E96E090069
:10016000F550EA6E090009000900F550C36F090057
:10017000F550C46F09000900F6CFC7F0F7CFC8F0FB
:10018000F8CFC9F0C0C0F6FFC1C0F7FFC2C0F8FF8A
:100190000001C35302E1C45307E00900F550EE6EBD
:1001A000C307F8E2C407F9D7C7C0F6FFC8C0F7FF16
:1001B000C9C0F8FF0001C507000EC65BBFD712001B
:1001C00010EE80F020EE80F0F86A0A9C91EC00F0CE
:0C01D000EEEC00F048EC00F0FBD7120051
:0201DC0012000F
:020000040030CA
:01000100C23C
:010003001EDE
:010006008178
:00000001FF
