:020000040000FA
:060000000CEF01F01200FC
:0600180016EF00F01200DB
:02002A000000D4
:04002C00D8CFE4FF46
:10003000E0CFE4FFE46EDACFE4FFE2CFDAFFE9CF0E
:10004000E4FFEACFE4FFF6CFE4FFF7CFE4FFF5CF1C
:10005000E4FFF3CFE4FFF4CFE4FFFACFE4FF00EED8
:1000600004F0020EE80403E3EECFE4FFFBD700EE5A
:1000700000F0040EE80403E3EECFE4FFFBD7E65202
:10008000F2945E0E80176BD8E55200EE03F0040E7A
:10009000E80403E3E5CFEDFFFBD700EE05F0020E29
:1000A000E80403E3E5CFEDFFFBD7E5CFFAFFE5CFAB
:1000B000F4FFE5CFF3FFE5CFF5FFE5CFF7FFE5CFA1
:1000C000F6FFE5CFEAFFE5CFE9FFE5CFDAFFE55040
:1000D000E5CFE0FFE5CFD8FF100003D807D8FFD762
:1000E0001200926A936A8068816A1200770ED36E5A
:1000F000F28AF194F28EF28C840ED56FF00ED76FE7
:10010000000ED66F1200D9CFE6FFE1CFD9FF020E65
:10011000E126DE6ADD6ADECF00F0DDCF01F0FD0E04
:10012000DBCF02F0FE0EDBCF03F003500118E8AE88
:1001300002D0013404D00050025C0150035805E3A2
:10014000DF2A010E01E3DB2AE6D7020EE15C02E2C0
:10015000E16AE552E16EE552E7CFD9FF120080CFA8
:1001600080F081CF81F01200822B8251F927020C9E
:0A017000040C080C100C400C1200E7
:06017A002A0EF66E000ED5
:10018000F76E000EF86E00010900F550656F09006A
:10019000F550666F03E1656701D03DD00900F55069
:1001A000606F0900F550616F0900F550626F09003A
:1001B0000900F550E96E0900F550EA6E09000900E2
:1001C0000900F550636F0900F550646F09000900DC
:1001D000F6CF67F0F7CF68F0F8CF69F060C0F6FFB0
:1001E00061C0F7FF62C0F8FF0001635302E164538E
:1001F00007E00900F550EE6E6307F8E26407F9D7EF
:1002000067C0F6FF68C0F7FF69C0F8FF0001650727
:08021000000E665BBFD712006F
:0802180015EE00F025EE00F0E8
:10022000F86A059CBDEC00F01AEC01F06DEC00F0F2
:04023000FBD71200E6
:020234001200B6
:00000001FF
