:020000040000FA
:100000008312031385018601831606309F00023098
:100010008500860183128601FA303D20FA303D20AA
:10002000FA303D20FA303D200730F500051418283D
:10003000851C18281B28051027303D202128860DF7
:1000400021288518252806102828061406303D206A
:100050000C303D20F50B1F28FA303D20FA303D20B2
:10006000FA303D20FA303D20FA303D20FA303D2074
:10007000FA303D20FA303D200B28F1003030F000FE
:0E00800000000000F00B4028F10B3E280800A5
:02400E00323F3F
:00000001FF
