:020000040000FA
:06000000EDEF02F012001A
:060018001CEF00F01200D5
:06002A0001002C0600009D
:08003000D500000004000000EF
:08003800D8CFE4FFE0CFE4FFA4
:10004000E46EDACFE4FFE2CFDAFFE9CFE4FFEACFF4
:10005000E4FFF6CFE4FFF7CFE4FFF5CFE4FFF3CF03
:10006000E4FFF4CFE4FFFACFE4FF00EE00F0100E5F
:10007000E80403E3EECFE4FFFBD700EE10F0040E3C
:10008000E80403E3EECFE4FFFBD7E652F3D8819216
:1000900081800001800ED61507E1D63504E2D551E6
:1000A0000308000ED65502E2D56BD66BD551D6119A
:1000B00020E10001C551C119E8AE02D0C13504D01C
:1000C000C051C45DC151C55914E2C751C319E8AE4E
:1000D00002D0C33504D0C251C65DC351C75909E22D
:1000E0000E0EC86F060EC96F010E0001D76FD86BD8
:1000F0006CD00001D551D61121E10001C151C519C3
:10010000E8AE02D0C53504D0C451C05DC551C15957
:1001100015E2C351C719E8AE02D0C73504D0C651A5
:10012000C25DC751C3590AE20E0EC86F060EC96FF1
:10013000819081820001D76BD86B47D00001D551E7
:10014000D61120E10001C551C119E8AE02D0C13578
:1001500004D0C051C45DC151C55914E2C351C7197F
:10016000E8AE02D0C73504D0C651C25DC751C359ED
:1001700009E23A0EC86F070EC96F010E0001D76F72
:10018000D86B23D00001D551D6111FE10001C15118
:10019000C519E8AE02D0C53504D0C451C05DC55103
:1001A000C15913E2C751C319E8AE02D0C33504D018
:1001B000C251C65DC351C75908E2B00EC86F040EE4
:1001C000C96F010E0001D76FD86B8AA60BD08A9633
:1001D000C8C0BEFFC9C0BFFF200ED880BE564E0E9D
:1001E000BF5605D08A86C8C0BEFFC9C0BFFF000188
:1001F000D507000ED65B9E94E55200EE13F0040E78
:10020000E80403E3E5CFEDFFFBD700EE0FF0100E9F
:10021000E80403E3E5CFEDFFFBD7E5CFFAFFE5CF39
:10022000F4FFE5CFF3FFE5CFF5FFE5CFF7FFE5CF2F
:10023000F6FFE5CFEAFFE5CFE9FFE5CFDAFFE550CE
:10024000E5CFE0FFE5CFD8FF10009268936A938472
:10025000816A700ED36E93968A960B0EBD6E910EC8
:10026000CD6EC8C0BEFFC9C0BFFF9D84F28CF28EA8
:10027000F19E1200E66A050EE66EAF0EE66E63ECC6
:1002800002F0E552E552E552870EE66EC0EC02F050
:10029000E55213EC03F00BEC03F0000901E0FBD78F
:1002A000FBEC02F0F3CFC0F0F4CFC1F08F0EE66E9E
:1002B000C0EC02F0E55213EC03F00BEC03F0000984
:1002C00001E0FBD7FBEC02F0F3CFC2F0F4CFC3F0B8
:1002D00010EF03F0D9CFE6FFE1CFD9FF080EE126FA
:1002E000B4DF80AC06D0080EE15C01E398D095D075
:1002F00093D080A847D0C0C0DEFFC1C0DDFF020E92
:10030000C2C0DBFF030EC3C0DBFF040EDBCF10F067
:10031000050EDBCF11F0DE50000110240001C46F88
:10032000DD50000111200001C56F020E0D6E0E6A36
:10033000C4C008F0C5C009F09AEC02F008C0C4F0CF
:1003400009C0C5F0060EDBCF10F0070EDBCF11F0B1
:10035000020EDB50000110240001C66F030EDB50BB
:10036000000111200001C76F020E0D6E0E6AC6C09B
:1003700008F0C7C009F09AEC02F008C0C6F009C046
:10038000C7F04AD080AC48D0040EC0C0DBFF050ED9
:10039000C1C0DBFF060EC2C0DBFF070EC3C0DBFF20
:1003A000040EDBCF10F0050EDBCF11F0DE500001A4
:1003B00010240001C46FDD50000111200001C56F41
:1003C000020E0D6E0E6AC4C008F0C5C009F09AECAA
:1003D00002F008C0C4F009C0C5F0060EDBCF10F073
:1003E000070EDBCF11F0020EDB50000110240001DC
:1003F000C66F030EDB50000111200001C76F020E13
:100400000D6E0E6AC6C008F0C7C009F09AEC02F083
:1004100008C0C6F009C0C7F064D7E16AE552E16ED2
:08042000E552E7CFD9FF1200FD
:080428002A0EF66E000EF76EBD
:10043000000EF86E00010900F550D06F0900F5506C
:10044000D16F03E1D06701D03DD00900F550CB6FEB
:100450000900F550CC6F0900F550CD6F0900090077
:10046000F550E96E0900F550EA6E0900090009002F
:10047000F550CE6F0900F550CF6F09000900F6CF97
:10048000D2F0F7CFD3F0F8CFD4F0CBC0F6FFCCC08A
:10049000F7FFCDC0F8FF0001CE5302E1CF5307E0D4
:1004A0000900F550EE6ECE07F8E2CF07F9D7D2C0BB
:1004B000F6FFD3C0F7FFD4C0F8FF0001D007000E4D
:0604C000D15BBFD7120062
:0A04C600D9CFE6FFDACFE6FFE1CF61
:1004D000D9FFE2CFDAFFC26AC06AFC0EDB50400DE2
:1004E000F350C00B106EFC0EDB407F0B3C0B10106A
:1004F000C26EFB0EDB50C16EFD0EDB50040DF350DF
:10050000380B116EFD0EDB380F0B070B106EFD0E56
:10051000DB50800B10101110C06EFC0EDBAE03D050
:100520009E9C9D8CF28CC280E552E5CFDAFFE7CF2E
:04053000D9FF1200DD
:0C053400006A0EAEA3EF02F00D6C0E1E6C
:10054000E86A0E22001E09AEABEF02F0086C091E2D
:10055000E86A0922001ED7EC02F009BEBBEF02F0E8
:1005600000AE000C086C091EE86A0922046C051E26
:10057000E86A0522000C00BEB2EF02F00188FF0C11
:10058000D9CFE6FFDACFE6FFE1CFD9FFE2CFDAFF3E
:10059000C30EC214106EFD0EDB407F0B3C0B10101F
:0E05A000C26EE552E5CFDAFFE7CFD9FF1200B9
:0205AE00056ADC
:1005B000046A100EE76ED890083609360436053600
:1005C0000D50045C0E50055805E30D50045E0E50AE
:0A05D000055A082AE72EF0D71200A2
:0605DA0010EE80F020EE9F
:1005E00080F0F86A019C14EC02F015EC03F06AEC60
:0605F00001F0FBD7120030
:0A05F600C450136E126AC3501210B5
:08060000F36E13C0F4FF1200B9
:0806080000EE00F00F0EEE6A97
:06061000EA62FDD71200B2
:0A061600C250020B01E0010E1200B9
:06062000C2909D9C120037
:04062600C28212007A
:02062A001200BC
:04062C0000000000CA
:020000040030CA
:01000100C836
:010003001EDE
:010006008178
:00000001FF
