:020000040000FA
:1000000083120313850186018316031307308500CD
:1000100086018316031384309F008312031301307B
:100020009F0042201F151F191328831603131E0853
:1000300083120313F50005192A281E288516562059
:100040004C204C204C20861756204C204C204C2015
:100050008512362885164C204C204C204C208617C3
:1000600056204C204C204C20851236283C20F50B85
:1000700036288613612012280930F000F00B3E2844
:10008000000008001830F00000000000F00B4428C9
:1000900000000000000008003130F0000000000007
:1000A000F00B4E2800000000000008000530F100B1
:1000B0003130F00000000000F00B5A28F10B5828F6
:1000C00008001930F100C730F00000000000F00B0C
:1000D0006528F10B632808003230F100C730F000CA
:1000E00000000000F00B7028F10B6E280800FA30B9
:1000F000F100C730F00000000000F00B7B28F10B8E
:040100007928080052
:02400E00323F3F
:00000001FF
