:020000040000FA
:0600000006EF01F0120002
:020006000000F8
:060008000FEF00F01200F2
:02000E001200DE
:0600180024EF00F01200CD
:02001E00DACF37
:10002000E4FFE2CFDAFFE652F2940B0ED76EDB0E5E
:10003000D66E00016B5103E1010E6B6F01D06B6B4B
:10004000E552E5CFDAFF1100D8CFE4FFE0CFE4FFBF
:10005000E46EDACFE4FFE2CFDAFFE6529E900B0EB9
:10006000CF6EDB0ECE6E00016A5103E1010E6A6FA6
:1000700001D06A6BE552E5CFDAFFE550E5CFE0FF4E
:10008000E5CFD8FF1000D08EF1849F90D388D39A0B
:10009000D38C0001010E6A6F6B6B926A806AD59EE9
:1000A000CD90D59CD59AD598D596D580D582D59426
:1000B000CD9ECD9CCD96CD92CD88CD8ADB0EE66EC1
:1000C0000B0EE66EEAEC00F0E552E552DB0EE66E52
:1000D0000B0EE66ECEEC00F0E552E552D58ECD80EB
:1000E000F28A9D80F28CF28E00016A51E824026E41
:0E00F0006B51040DF3500210806EF6D7120013
:0200FE00060EEC
:10010000F66E000EF76E000EF86E00010900F55055
:10011000656F0900F550666F03E1656701D03DD05A
:100120000900F550606F0900F550616F0900F55046
:10013000626F09000900F550E96E0900F550EA6E9A
:10014000090009000900F550636F0900F550646F5C
:1001500009000900F6CF67F0F7CF68F0F8CF69F033
:1001600060C0F6FF61C0F7FF62C0F8FF0001635393
:1001700002E1645307E00900F550EE6E6307F8E210
:100180006407F9D767C0F6FF68C0F7FF69C0F8FFDA
:0C01900000016507000E665BBFD712007F
:04019C00D9CFE6FFD2
:1001A000DACFE6FFE1CFD9FFE2CFDAFFE652E6523F
:1001B000FC0EDBCFDEFFDBCFDDFF010EDB50CF6EB1
:1001C000DF50CE6EE552E552E552E5CFDAFFE7CFDC
:0401D000D9FF120041
:0C01D400D9CFE6FFDACFE6FFE1CFD9FF7C
:1001E000E2CFDAFFE652E652FC0EDBCFDEFFDBCFDA
:1001F000DDFF010EDB50D76EDF50D66EE552E552C3
:0C020000E552E5CFDAFFE7CFD9FF12008E
:04020C0015EE00F0FB
:1002100025EE00F0F86A019C7FEC00F007EC00F09E
:0802200043EC00F0FBD71200D3
:0802280000EE00F00F0EEE6A7B
:06023000EA62FDD7120096
:020000040030CA
:0100010008F6
:010006008178
:00000001FF
