:020000040000FA
:020000000B28CB
:0800080070140C102B308E0067
:10001000CF308F00090083120313850186018316F8
:100020000313850186011428831203135330A5009E
:10003000AA30A600A701F001FE01FF30F100A001E7
:10004000A101A2012328831203138B018C018316C3
:1000500003138C01831203130430900083160313DF
:100060000C148312031310140B178B175528701CD4
:1000700037283A2883120313701007308500FF30A9
:10008000F1004228A00303190510A10303198510EC
:10009000A203031905110000000000000000000089
:1000A00000000000F10B4228552883120313203072
:1000B000A50A0318F0064030A60A0318F00680309F
:1000C000A70A0318F0062508F01E2509A000260837
:1000D000701F2609A1002708F01F2709A200372852
:1000E000F930FF0000000000FF0B72280000000044
:1000F000000008001830FF0000000000FF0B7C2803
:080100000000000000000800EF
:02400E00323F3F
:00000001FF
