:020000040000FA
:0600000090EF0CF012006D
:020006001200E6
:0600080085EF07F0120075
:02000E00C250DE
:08001000020B01E0010E1200D9
:0600180090EF07F012005A
:02001E000100DF
:0C002000C21900007B0000000900000075
:04002C0052EC05F09D
:10003000FB0EDBCFF3FFDB06F35000090AE0A0EC78
:1000400005F0FA0E0BEC06F0F3E1151CF1E1010EE0
:1000500001D0000E81EF05F052EC05F03B0EE124DB
:1000600002E3E168E652E16E010EDB6A020EDB6A32
:10007000F90EDBCFF6FFFA0EDBCFF7FFFB0EDBCF7F
:10008000F8FF0800F550DF6EDF5002E1A5EF04F045
:10009000250EDF5C02E098EF04F0030EDB6A040E2D
:1000A000DB6A050EDB6A060EDB6A070EDB6ABAEC5A
:1000B00004F02D0EDF5C0CE02B0EDF5C09E0200E5F
:1000C000DF5C06E0230EDF5C03E0300EDF5C1AE14C
:1000D000DF50300A14E0130A0FE0030A0AE00B0AAB
:1000E00005E0060AE4E1030EDB80E1D7030EDB82C4
:1000F000DED7030EDB84DBD7030EDB86D8D7030EF7
:10010000DB88D5D72A0EDF5C1BE1B6EC04F004ECEB
:1001100005F010E0030EDB8006680768130EDBCFE6
:100120000DF0140EDBCF0EF091EC0BF0040E04C0BA
:10013000DBFF03D0130EEDEC04F0BAEC04F00BD0AF
:10014000090EDB6A5BEC05F003E0CFEC05F0FAD7B3
:10015000090EEDEC04F0030EDBB0DB982E0EDF5C35
:100160001BE1BAEC04F02A0EDF5C0BE1B6EC04F004
:1001700004EC05F003E1130E3FEC05F0BAEC04F0DB
:100180000BD0090EDB6A5BEC05F003E0CFEC05F069
:10019000FAD7090E3FEC05F0680EDF5C07E1BAEC18
:1001A00004F0680EDF5C1DE1030E18D0740EDF5CF6
:1001B00017E07A0EDF5C14E0480EDF5C06E0540EB8
:1001C000DF5C03E05A0EDF5C02E1020E07D06C0E2A
:1001D000DF5C03E06A0EDF5C04E1010E92EC05F0E7
:1001E000C9DBDF506E0A01E17FD31E0A01E192D123
:1001F000200A01E18FD13F0A01E149D11A0A01E148
:1002000046D10D0A01E143D1200A01E140D13A0A69
:1002100001E13DD1200A01E13AD1260A01E135D1BF
:100220000D0A01E132D11A0A01E1D9D0200A4AE0CF
:10023000300A1FE0460A0EE0250A01E083D3D950B8
:10024000F90FE96EFF0EDA20EA6E010EEE5E000E87
:10025000EE5AEE5AA0EC05F0250EE66E95DB03E1B2
:10026000151C01E169D39CEC05F001E26BD3DB2A9C
:1002700069D3080EDB6A040EDB50010806E2040EA7
:10028000DB0464EC05F0DB508BDB080EDB5009E08F
:10029000030EDB50010B05E172DB01E04DD3080ECC
:1002A000DB6A64DBEFCFDFFF14EC06F003E1151C23
:1002B00001E142D39CEC05F001E3DB2A60DB01E1C4
:1002C00041D33AD3070EDB5002080FE1E0EC05F012
:1002D000030EA7EC05F00E0EEECFDBFF0F0EEECFF8
:1002E000DBFF100EEECFDBFF20D0F70EDBCF17F0D9
:1002F000F80EDBCF18F0020E175E000E185AF70E3C
:1003000017C0DBFFF80E18C0DBFF17C0E9FF18C0ED
:10031000EAFF97EC05F0166A0E0E14C0DBFF0F0E15
:1003200015C0DBFF100E16C0DBFF0E0EDBCFE6FFA5
:100330000F0EDBCFE6FF100EDBCFE6FF6CEC0BF011
:10034000E552E552E552130E05C0DBFF140E06C060
:10035000DBFF060EDB5005E0130EDBEC05F001E2DF
:100360006ADBFFEC05F002E2130E37DBC2EC05F0AE
:1003700006E0040EDBEC05F002E2050E2EDB030EB8
:10038000DBB005D0FCDA01E0D7D2080EDB6A090E3B
:10039000DB6A0E0EDBCFF6FF0F0EDBCFF7FF100E82
:1003A000DBCFF8FF0800F550DF6EDF5014E005ECFE
:1003B00006F011E214EC06F003E1151C01E1BCD2D9
:1003C000BBDB01E3DB2A090EDB2AD9500E0FE96EF5
:1003D000000ECBDBE7D7D3DA01E1B4D2ADD2C6DA77
:1003E000110EEECFDBFF120EEDCFDBFF110EDBCFD8
:1003F000E6FF120EDBCFE6FF5EEC0BF0E552E552B6
:10040000130EF3CFDBFF140EF4CFDBFF060EDB5031
:1004100004E0130ED0DB01E20EDBFFEC05F002E29C
:10042000130EDBDAAFDB05E0040EC5DB02E2050EDE
:10043000D4DA030EDBB005D0A2DA01E07DD2080EDB
:10044000DB6A090EDB6A110EDBCFE9FF120EDBCF90
:10045000EAFFEFCFDFFFDF5014E0D7DB12E2E4DB8F
:1004600003E1151C01E168D267DB01E3DB2A090E19
:10047000DB2A110EDB2ADBCFE9FF120EE8E3DB2AD1
:10048000E6D77DDA01E15ED257D2030EDB8E070E8E
:10049000DB0410E195DB040E5ADB0A0EEECFDBFF26
:1004A0000B0EEECFDBFF0C0EEECFDBFF0D0EEECF13
:1004B000DBFF6CD0070EDB5003082CE1030EDBAE34
:1004C0000DD0B2DA020E76DAEFCF14F0156A166AA2
:1004D000176A14AE39D01568166835D0F70EDBCF21
:1004E00015F0F80EDBCF16F0020E155E000E165A50
:1004F000F70E15C0DBFFF80E16C0DBFF15C0E9FFD5
:1005000016C0EAFFEFCF14F00A0E14C0DBFF0B0E8B
:10051000DB6A38D0070EDB50020809E1030EDBAEC0
:1005200004D059DB16AE10D00ED055DB0DD0030E23
:10053000DBAE12D079DA020E3DDAF9DA166A176A02
:1005400015AE02D016681768E2DA0C0E16C0DBFF93
:100550000D0E17C0DBFF1AD0F70EDBCF16F0F80E2A
:10056000DBCF17F0020E165E000E175AF70E16C0FC
:10057000DBFFF80E17C0DBFF16C0E9FF17C0EAFF6C
:10058000D6DAC5DA0C0EDB6A0D0EDB6A060EDB501E
:1005900005E1010EF36E050EF3CFDBFF150EDB6AEE
:1005A000160EDB6AD950370F146E000EDA20156E66
:1005B000390E14C0DBFF3A0E15C0DBFF380EDB6AC4
:1005C000080EDB6A0A0EAEDADF50780A12E0200A63
:1005D00010E0280A0CE0200A0AE03F0A06E00D0AB3
:1005E00002E0200A08E1020E05D0080E03D0080E32
:1005F000DF26100E97DA030EDBBE02D0DB92DB940F
:10060000DB50800B24E08ADAD890030EEB50000A0E
:1006100008E6000EEE5C000EEE58000EEE58000EDE
:10062000EE5815E213DA0B680C680D680E6826ECBC
:100630000BF00A0E00C0DBFF0B0E01C0DBFF0C0E3F
:1006400002C0DBFF0D0E03C0DBFF2D0E08D0030E32
:10065000DBA202D02B0E03D0DBA408D0200EF36E59
:10066000170EF3CFDBFF150EDB2A02D0170EDB6A65
:10067000050EDB5003E1B7D901E189D0800E146E7D
:10068000190E156E000E166E070EDBCF17F0186AE6
:10069000196A1A6A17C00BF018C00CF019C00DF0D7
:1006A0001AC00EF0D3D9BEEC0BF014500024F36E38
:1006B00015500120F46E16500220F86EF4CFF7FFAB
:1006C000F3CFF6FF0800090EF5CFDBFF580EDF5C15
:1006D0000FE1610EF36E090E7BD90AE3200E146E52
:1006E000090EDBCFE7FF1450E75E090EE7CFDBFF13
:1006F000070EDBCF14F0156A166A176A0FDA14C0FA
:100700000BF015C00CF016C00DF017C00EF0EECFB8
:1007100004F0EECF05F0EECF06F0EFCF07F0BEEC21
:100720000BF007C0EDFF06C0EDFF05C0EDFF04C0F4
:10073000EFFF390EDBCFE9FFDB063A0EDBCFEAFF36
:1007400001E2DB06090EDBCFEFFF150EDB2A4BD9EA
:1007500095E1030EDBA61DD06F0EDF5C06E1C1D96B
:1007600018E3150EDB285BDA14D0780EDF5C09E0A5
:10077000580EDF5C06E0620EDF5C03E0420EDF5CD9
:1007800008E1020EF36E160EF3CFDBFF02D0150E5A
:10079000DB6A030EDB50100B0EE0040EDBCF14F00F
:1007A000050EDB50D880145406E2060EDB5003E140
:1007B000040EDB5034DA95D90AE2050EDBCFE7FFF1
:1007C000150EDB50E75E050EE7CFDBFF02D0050E0E
:1007D000DB6A040EDBCF14F0160E45D9D880145412
:1007E00014E2160EDBCFE6FF150EDBCFE6FF040E9C
:1007F000DBCFE6FF050EDB50E552E75CE552D88023
:10080000E754E552D880E7545FD9030EDB50010B63
:100810000BE1080EDB5008E0B2D801E08DD0080EE5
:10082000DB50BED8080EDB6A170EDB5007E088D914
:10083000170EF1D903E1151C01E17ED0160EDB5035
:1008400016E07ED9300EE66E9FD802E1151C74E0EA
:1008500077D9DFCFE6FF6CEC0AF0E552E552E552BE
:10086000F4CF15F00001F31C02E1151C65E0050E44
:10087000DBCF14F0160EDB50D880145409E2050EBD
:10088000DBCFE7FF160EDB50E75E050EE7CFDBFFA1
:10089000300EE66E050ECBD94FE1390EDB2ADBCFE9
:1008A000E9FF3A0E01E3DB2ADBCFEAFF090EEFCFC7
:1008B000DBFFDB500EE044D9090EADD902E1151C77
:1008C0003BE0390EDB2ADBCFE9FF3A0EEDE3DB2A12
:1008D000EBD755D831E1160EDBCFE6FF080EC3D8B3
:1008E000E552E7245DD82ED0070EDB50030A1CE04A
:1008F000010A14E0030A07E07BD9DBCFEEFF020E0A
:10090000DBCFEDFF1FD0F5D8196A17AE02D01868FB
:1009100019682CD8BCD819C0EEFF14D0EAD817BE7D
:10092000186824D8B4D80ED063D9DBCFEFFF0AD033
:100930007BD905E1151C03E1F368F46810D0FCD8FD
:1009400001E3DB2A79D941EF00F0010EDBCF14F08F
:10095000020EDBCF15F014C0F3FF15C0F4FF3B0E01
:10096000E15C02E2E16AE552E16ECBD029D9020EE8
:10097000A7EF05F061D90800F550DF6E1200200ED8
:10098000E66E080E17EF06F06CEC0AF0E552E55241
:10099000E552F3CF14F0F4CF15F00001F31C120070
:1009A000146E156AD950010F4DD91450EE2615500A
:1009B000ED221200185E000E195AF70E18C0DBFF68
:1009C000F80E19C0DBFF18C0E9FF19C0EAFF1200DA
:1009D000DBCFF4FFF350F45C1200DB50E76E040E43
:1009E000E7CFDBFF12000A0EDBCF14F00B0EDBCFDC
:1009F00015F00C0EDBCF16F00D0EDBCF17F01450F8
:100A00001510161017101200130EEECFDBFF140E88
:100A1000EDCFDBFF130EDBCF14F0140EDBCF15F0A0
:100A20000001800E15141200F70EDBCF18F0F80E3F
:100A3000DBCF19F01200050EDB50E66ED950130F14
:100A400001D9E552E750EE6EED6A12000A0EDBCFD7
:100A500004F00B0EDBCF05F00C0EDBCF06F00D0E15
:100A6000DBCF07F01200DBCFE6FF150EDBCFE6FF92
:100A7000050EDB50E552E724E552E7241200DB5077
:100A8000CED8010EF36E060EF3CFDBFF1200EE5050
:100A9000EFCFEAFFE96E16C0EEFF17C0EEFF18C0F9
:100AA000EEFF1200D9CFE6FFDACFE6FFE1CFD9FFA4
:100AB000E2CFDAFF1200DFCFE6FFE66A6EEC0CF061
:100AC000E552E552F3501200E76E080EE7CFDBFF68
:100AD0001200EECF14F0EECF15F0EFCF16F0176A3C
:100AE0001200050EDBCF14F0150EDB50D880145425
:100AF0001200010EDBCF16F0020EDBCF17F0186AE2
:100B00001200E552E5CFDAFFE7CFD9FF12000A0E57
:100B100014C0DBFF0B0E15C0DBFF1200D9500A0F0B
:100B200022EF06F0F36E070EF3CFDBFF1200EECFDD
:100B300014F0EFCF15F01200010EDB2A020E1200A6
:100B4000FC0EDBCFE6FFFD0EDBCFE6FF1200145EEE
:100B5000000E155AF70E14C0DBFFF80E15C0DBFFB0
:100B600014C0E9FF15C0EAFF1200DA20EA6EEF2A8E
:100B7000EECFF6FF000EEF22EECFF7FFEF22EECF23
:100B8000F8FF1200040EDBCFE6FF130EDB50E55238
:100B9000E75C9ADFDB5004DF060EDB501200090E23
:100BA000DB500A0DF350DF24D00FE76E090EE7CFBC
:100BB000DBFFBAEF04F0DB50F36E050EE8EF04F054
:100BC000F70EDBCF14F0F80EDBCF15F01200DFCFFD
:100BD000E6FFC4EF04F028DF030EECDE69EF05F05A
:100BE00016EC00F0E552E552E552E552000912001C
:100BF000BDDEEE50EFCFEAFFE96E010E1200130EDC
:100C0000DB50F36E040EE8EF04F0040EDB50F36EDD
:100C1000090EE8EF04F0DBCFE6FFC4EF04F0E76E67
:100C2000050EE7CFDBFF12008BDFE7EF05F0DBCF30
:100C3000E6FF86DFF0EF05F0D950F90FE96EFF0E01
:0E0C4000B5EF05F0E96E000EDA20EA6E120044
:020C4E00D9CFFC
:100C5000E6FFE1CFD9FF480EE126300EDB6A310E08
:100C6000DB6A320EDB6A330EDB6A340EDB6A350E6A
:100C7000DB6A0001010E6B6F6C6B6DDA76DA320E97
:100C8000E66E57EC0CF0E5524AEC09F0010EE66E08
:100C900095EC09F0E552B3EC09F0A9EC09F0AEECE3
:100CA00009F0000EE66EE66A040EE66EAF0EE66E22
:100CB000AEEC0AF0E552E552E552E5528088DEECF2
:100CC0000CF007EC00F0000901E0FBD7B7EC0CF0EA
:100CD000F3CF60F0F4CF61F08098000EE66EE66A24
:100CE0000C0EE66EAF0EE66EAEEC0AF0E552E55283
:100CF000E552E552808ADEEC0CF007EC00F00009CA
:100D000001E0FBD7B7EC0CF0F3CF62F0F4CF63F067
:100D1000809A000EE66EE66A140EE66EAF0EE66E80
:100D2000AEEC0AF0E552E552E552E552808CDEEC7D
:100D30000CF007EC00F0000901E0FBD7B7EC0CF079
:100D4000F3CF64F0F4CF65F0809C000EE66EE66AA7
:100D50001C0EE66EAF0EE66EAEEC0AF0E552E55202
:100D6000E552E552808EDEEC0CF007EC00F0000955
:100D700001E0FBD7B7EC0CF0F3CF66F0F4CF67F0EF
:100D8000809E460EDB6A470EDB6A010EF36E300E64
:100D9000F3CFDBFF310EDB6A300EDBCF14F0310E08
:100DA000DBCF15F0D890155004E6040E145C000E4D
:100DB00015583FE2300EDBCFE9FF310EDBCFEAFF03
:100DC000D890E936EA36600EE926000EEA22EECF28
:100DD00014F0EFCF15F0460EDBCFE9FF470EDBCF67
:100DE000EAFFD890E936EA36600EE926000EEA22DC
:100DF000EECF16F0EFCF17F017501518E8AE02D06F
:100E0000153404D01450165C155017580CE2300EEF
:100E1000DBCF06F0310EDBCF07F0460E06C0DBFF5E
:100E2000470E07C0DBFF300EDB2A310E01E3DB2A61
:100E3000B3D7460EDBCF68F0470EDBCF69F0300E3C
:100E4000000168256A6F6AC014F0156A14BE15683F
:100E500014C0E6FF15C0E6FF6FC0E6FF70C0E6FFF6
:100E6000990E166E190E176E186A16C0E6FF17C097
:100E7000E6FF18C0E6FFD9CFE6FFDACFE6FFC7EC02
:100E800009F0196E090EE15E195066C0E6FF67C0F1
:100E9000E6FF64C0E6FF65C0E6FF910E146E190E12
:100EA000156E166A14C0E6FF15C0E6FF16C0E6FF11
:100EB000D950100FE66E000EDA20E66EC7EC09F08E
:100EC000176E090EE15E1750A9EC09F0D9CFE6FFC5
:100ED000DACFE6FF60EC09F0E552E552AEEC09F03E
:100EE000D950100FE66E000EDA20E66E60EC09F0C5
:100EF000E552E552D6D6480EE15C02E2E16AE552DF
:100F0000E16EE552E7CFD9FF1200DACFE4FFE2CF7E
:100F1000DAFFE652F2949E96E552E5CFDAFF110031
:100F2000D8CFE4FFE0CFE4FFE46EDACFE4FFE2CF16
:100F3000DAFFE9CFE4FFEACFE4FFF6CFE4FFF7CF33
:100F4000E4FFF5CFE4FFF3CFE4FFF4CFE4FFFACF03
:100F5000E4FF00EE00F0140EE80403E3EECFE4FF3C
:100F6000FBD700EE14F0070EE80403E3EECFE4FF36
:100F7000FBD7E6529E9000016B5150E1010E6B6F62
:100F80008B8068C0E9FF69C0EAFFD890E936EA368D
:100F9000600EE926000EEA22EECF1BF0EFCF1CF028
:100FA0001C3404E21B509008010E1C542EE268C051
:100FB000E9FF69C0EAFFD890E936EA367B0EE926F8
:100FC000000EEA22EECFE6FFEFCFE6FFADD8E55206
:100FD000E552F3CF1BF0F4CF1CF01BC0E6FF1CC0A2
:100FE000E6FF03EC0CF0E552E55268C0E9FF69C08A
:100FF000EAFFD890E936EA367B0EE926000EEA22AF
:10100000EECF6FF0EDCF70F008D04F0EE66EFB0E16
:10101000E66E03EC0CF0E552E5525DD06B6B8B9005
:1010200068C0E9FF69C0EAFFD890E936EA36600E89
:10103000E926000EEA22EECF1BF0EFCF1CF01C34A5
:1010400004E21B509008010E1C541DE26FC01DF0FD
:1010500070C01EF0200ED8801D564E0E1E561DC0AC
:10106000E6FF1EC0E6FF60D8E552E552F3CF1BF065
:10107000F4CF1CF01BC0E6FF1CC0E6FF03EC0CF035
:10108000E552E55208D08F0EE66EB60EE66E03EC22
:101090000CF0E552E552D0EC0CF0C580C5B0FED79F
:1010A000D0EC0CF083C0E6FFEDEC0AF0E55200094D
:1010B00001E011D0D0EC0CF06AC0E6FFEDEC0AF0D4
:1010C000E552000901E007D0D0EC0CF0C584C5B4AE
:1010D000FED7D0EC0CF0E55200EE1AF0070EE80453
:1010E00003E3E5CFEDFFFBD700EE13F0140EE804A9
:1010F00003E3E5CFEDFFFBD7E5CFFAFFE5CFF4FF44
:10110000E5CFF3FFE5CFF5FFE5CFF7FFE5CFF6FF3E
:10111000E5CFEAFFE5CFE9FFE5CFDAFFE550E5CF20
:10112000E0FFE5CFD8FF1000D9CFE6FFE1CFD9FF30
:10113000FD0EDBCF14F0FE0EDBCF15F0FF0ED880D6
:101140001456155614C0F3FF15C0F4FF00D0E55235
:10115000E7CFD9FF12008F0ED3145009D36E0F0EB4
:10116000926E936A180E946E1200D59ECD90830EE7
:10117000E66E3BEC0CF0E552D596C50EE66EE2EC61
:101180000BF0E552D08EF29AF1849D809F909D865F
:101190009F86F28CF28E230EE66EFA0EE66E1FEC40
:1011A0000CF0E552E552230EE66EFA0EE66EBCDF59
:1011B000E552E552F3CF14F0F4CF15F014C0E6FF7A
:1011C00015C0E6FF03EC0CF0E552E552D59ECD804C
:1011D000C68AC686C694C692C690090EC86E12000C
:1011E0000C0EAF6EC00E9410946EAC98AB8EAC9C8F
:1011F000B898B886AC8A1200D9CFE6FFE1CFD9FF04
:10120000030EE126010EDB6A020EDB6A010EDBCF64
:1012100014F0DB2A020EDBCF15F001E3DB2AFD0E12
:10122000DB501424E96EFE0EDB501520EA6EEFCF82
:10123000DFFFDF50AD6E050EE66E80EC0CF0E55280
:10124000010EDBCF14F0020EDBCF15F0FD0EDB50EC
:101250001424E96EFE0EDB501520EA6EEF50D6E145
:10126000030EE15C02E2E16AE552E16EE552E7CF8E
:10127000D9FF1200D9CFE6FFE1CFD9FFFE0EDB5038
:10128000AD6E050EE66E80EC0CF0E552E552E7CF50
:04129000D9FF120070
:0C129400050EE66E57EC0CF0E552380E2B
:1012A000E66E43D8E5520F0EE66E3FD8E552060EC5
:1012B000E66E3BD8E552020EE66E37D8E5521200D4
:1012C000D9CFE6FFE1CFD9FFE652DF6A8B8C8B9452
:1012D0008B92DF6ADF50E76EFD0EDBCFE9FFFE0E7B
:1012E000DBCFEAFFE750E926000EEA22EF5018E0D4
:1012F000DF50E76EFD0EDBCFE9FFFE0EDBCFEAFF2E
:10130000E750E926000EEA22EF508A6E8B82000039
:101310008B9200008B8200008B920000DF2ADAD7CC
:10132000E552E552E7CFD9FF1200D9CFE6FFE1CF72
:10133000D9FFFE0EDB508A6E8B948B9C8B828B9236
:10134000050EE66EACEC0CF0E552E552E7CFD9FFA6
:101350001200800EE66EE9DFE5521200C00EE66E66
:10136000E4DFE5521200010EE66EDFDFE552020E09
:10137000E66E80EC0CF0E55212000C0EE66ED5DF46
:0E138000E5521200080EE66ED0DFE5521200B4
:02138E00D9CFB5
:10139000E6FFDACFE6FFE1CFD9FFE2CFDAFFE65290
:1013A000E652E652E652D950F90F146EFF0EDA20DB
:1013B000156E020E14C0DBFF030E15C0DBFF020E1C
:1013C000DBCFE6FF030EDBCFE6FFF90EDBCFE6FF58
:1013D000FA0EDBCFE6FFFB0EDBCFE6FFD950FC0FAA
:1013E000E66EFF0EDA20E66E2CEC00F0146E070EAF
:1013F000E15C02E2E16AE552E16E1450F3CFDEFFF8
:10140000F4CFDDFFFC0EDBCFE9FFFD0EDBCFEAFF03
:10141000EF6ADECF14F0DDCF15F014C0F3FF15C076
:10142000F4FF040EE15C02E2E16AE552E16EE5528E
:0A143000E5CFDAFFE7CFD9FF120085
:06143A001E0EF66E000E0E
:10144000F76E000EF86E00010900F550766F090086
:10145000F550776F03E1766701D03DD00900F55074
:10146000716F0900F550726F0900F550736F090034
:101470000900F550E96E0900F550EA6E090009000F
:101480000900F550746F0900F550756F09000900E7
:10149000F6CF78F0F7CF79F0F8CF7AF071C0F6FF99
:1014A00072C0F7FF73C0F8FF0001745302E1755377
:1014B00007E00900F550EE6E7407F8E27507F9D7FA
:1014C00078C0F6FF79C0F7FF7AC0F8FF0001760711
:0814D000000E775BBFD712008C
:0814D800D9CFE6FFDACFE6FFF1
:1014E000E1CFD9FFE2CFDAFFFB0EDBCF14F0FC0E29
:1014F000DBCF15F00001800E15141AE1FB0EDBCFD7
:10150000E9FFFC0EDBCFEAFFEECFF3FFEDCFF4FFF8
:10151000EE2A000EEF22F3CFE9FFF4CFEAFFFD0E33
:10152000DBCFEFFFEF50156AF36E15C0F4FF10D05C
:10153000FB0EDB50FE0806E1FD0EDBCFE6FF9EEC66
:101540000CF005D0FD0EDBCFE6FF03EC00F0E5521A
:0C155000E552E5CFDAFFE7CFD9FF12002B
:04155C00D9CFE6FFFE
:10156000DACFE6FFE1CFD9FFE2CFDAFFC26AC16A84
:10157000C06AFC0EDB407F0B3C0BC26EFC0EDB38FE
:10158000F00B300BC112FD0EDB50040DF350380B85
:10159000156EFD0EDB380F0B070B146EFD0EDB50C6
:1015A000800B14101510C06EFA0EDB507E6EFA0E12
:1015B000FB0EDBCF15F015C014F0156A14507F6ECA
:1015C000FC0EDBAE03D09E9C9D8CF28CC280E5525B
:0A15D000E5CFDAFFE7CFD9FF1200E4
:0615DA00D9CFE6FFDACFD5
:1015E000E6FFE1CFD9FFE2CFDAFFFD0EDB50C96E97
:1015F000C6AE02D0FF0E24D00F0EC61408080FE0AE
:101600000F0EC6140B080BE0C6889EA6FED7C75067
:10161000040B03E1C750010B10E0000E11D00F0EB8
:10162000C614080804E00F0EC6140B0809E1C7B081
:10163000FED7D0EC0CF0C5AC02D0FE0E01D0000EEF
:0C164000E552E5CFDAFFE7CFD9FF12003A
:04164C0004500B0239
:10165000F3CF00F0F4CF01F00C02F3500126000E9E
:10166000F420026E04500D02F3500226000EF42006
:10167000036E04500E02F350032605500B02F35084
:101680000126F4500222000E032205500C02F350F2
:101690000226F450032205500D02F3500326065093
:1016A0000B02F3500226F450032206500C02F350B2
:0C16B000032607500B02F3500326120023
:0416BC00FE0EE3CF6C
:1016C000E9FFFF0EE3CFEAFFF36AF46AEE5203E0AC
:1016D000F34AF42AFBD71200FF0EE3CFF8FFE552DE
:1016E000FF0EE3CFF7FFE552FF0EE3CFF6FFE55223
:1016F000E66AE66AE66A0900F55209E0FD0EE32AA9
:1017000005E1FE0EE32A02E1FF0EE32AF4D7FD0E07
:10171000E3CF05F0FE0EE3CF06F0FF0EE3CF07F0B8
:021720001200B5
:0E17220007C013F006C012F006500D02F4CFFF
:1017300005F0F3CF04F007500E02F4CF07F0F3CF1B
:1017400006F00D02F3500526F4500622E86A07223F
:1017500012500E02F3500526F4500622E86A0722C2
:101760000EAEB7EF0BF01250065E1350075A13AED1
:0C177000000C0D50065E0E50075A000CD5
:04177C00036A026A90
:10178000016A006A200EE76ED890043605360636E8
:10179000073600360136023603360B50005C0C501B
:1017A00001580D5002580E50035809E30B50005ECB
:1017B0000C50015A0D50025A0E50035A042AE72EBB
:0417C000E4D7120058
:0C17C400D9CFE6FFDACFE6FFE1CFD9FF76
:1017D000E2CFDAFFFD0EDB507E0BCD6EFD0EDBACF3
:1017E00002D0CD8E01D0CD9ECF6ACE6A9E90DBAE68
:1017F00002D09D8001D09D90CD80E552E5CFDAFFEB
:06180000E7CFD9FF120042
:0A180600D9CFE6FFDACFE6FFE1CF0D
:10181000D9FFE2CFDAFFE652E652FC0EDBCFDEFF65
:10182000DBCFDDFF010EDB50CF6EDF50CE6EE55219
:0E183000E552E552E5CFDAFFE7CFD9FF12000F
:02183E00D9CF00
:10184000E6FFDACFE6FFE1CFD9FFE2CFDAFFE652DB
:10185000E652FC0EDBCFDEFFDBCFDDFF010EDB50FF
:10186000D76EDF50D66EE552E552E552E5CFDAFF8E
:06187000E7CFD9FF1200D2
:0A187600D9CFE6FFDACFE6FFE1CF9D
:10188000D9FFE2CFDAFFFD0EDB507F0BD56ED76AB2
:10189000D66AF294FD0EDBAE02D0F28A01D0F29A43
:0E18A000D58EE552E5CFDAFFE7CFD9FF120073
:0218AE00FF0E2B
:1018B000E350206EEF0E01D0F30EE76EE72E5EEFE1
:1018C0000CF00C0E1F6EE76AE72E64EF0CF01F2E73
:0C18D00063EF0CF0202E5CEF0CF0120017
:0418DC00F36AF46A4D
:1018E000FF0EE124E96EFF0EE220EA6EED6607D0FE
:1018F0002F0EEF6404D03A0EEF6001D0F32A1200ED
:10190000FF0EE350206E480E01D04C0EE76EE72E1E
:10191000FED7E76AE72EFED7202EF7D70000120089
:1019200015EE00F025EE00F0F86A0A9C1DEC0AF0B6
:0C193000E0EC0CF027EC06F0FBD71200F6
:04193C00FF0EE35067
:10194000ACBA04D0AF6AAB8EAC8A949CACA2FED782
:08195000AD6EF36EF46A1200A3
:08195800FF0EE350E84E1200FF
:0E196000000000D000D000D0E82EFAD7120010
:02196E00C45063
:10197000176E166AC3501610F36E17C0F4FF1200EC
:1019800030313233343536373839616263646566F5
:011990000056
:0F19910025642025642020002564202563200084
:0E19A0001F0EC514FDE1C750040BFAE1120042
:0219AE0000EE49
:0C19B00000F00F0EEE6AEA62FDD7120094
:0419BC00C2821200D1
:0219C000120013
:0919C200E8034C044605DC0506AF
:020000040030CA
:0100010008F6
:010006008178
:00000001FF
