:020000040000FA
:020000000B28CB
:0800080070140C10B0308E00E2
:100010003C308F0009008312031385018601F00133
:10002000831603130B3085008601162883160313ED
:1000300004309F001B2883120313A001A101A20119
:10004000A301A401F001FE01FA30F1002728831278
:1000500003138B018C01831603138C01831203138A
:1000600004309000831603130C148312031310142E
:100070000B178B173E28701C3B283E288312031356
:10008000701003308600FA307520F1004728A00375
:1000900003190610A10303198610A2030319061100
:1000A000A30303198611A40303190612F10B4728B1
:1000B00059288312031301309F007F201F158920C8
:1000C000831203131E08A0002010A01067288312BB
:1000D000031309309F007F201F158920831203130B
:1000E0001E08A1002110A1103B28F930FF000000DC
:1000F0000000FF0B77280000000000000800183007
:10010000FF0000000000FF0B81280000000000003D
:1001100008001F1989280800831203137D30A000EE
:100120007D30A1007D30A2007D30A3007D30A40091
:020130000800C5
:02400E00323F3F
:00000001FF
