:020000040000FA
:060000004AEF09F01200B6
:02002A000000D4
:04002C0052EC05F09D
:10003000FB0EDBCFF3FFDB06F35000090AE0A0EC78
:1000400005F0FA0E0BEC06F0F3E1151CF1E1010EE0
:1000500001D0000E81EF05F052EC05F03B0EE124DB
:1000600002E3E168E652E16E010EDB6A020EDB6A32
:10007000F90EDBCFF6FFFA0EDBCFF7FFFB0EDBCF7F
:10008000F8FF0800F550DF6EDF5002E1A5EF04F045
:10009000250EDF5C02E098EF04F0030EDB6A040E2D
:1000A000DB6A050EDB6A060EDB6A070EDB6ABAEC5A
:1000B00004F02D0EDF5C0CE02B0EDF5C09E0200E5F
:1000C000DF5C06E0230EDF5C03E0300EDF5C1AE14C
:1000D000DF50300A14E0130A0FE0030A0AE00B0AAB
:1000E00005E0060AE4E1030EDB80E1D7030EDB82C4
:1000F000DED7030EDB84DBD7030EDB86D8D7030EF7
:10010000DB88D5D72A0EDF5C1BE1B6EC04F004ECEB
:1001100005F010E0030EDB8008680968130EDBCFE2
:100120000DF0140EDBCF0EF0C0EC08F0040E06C08C
:10013000DBFF03D0130EEDEC04F0BAEC04F00BD0AF
:10014000090EDB6A5BEC05F003E0CFEC05F0FAD7B3
:10015000090EEDEC04F0030EDBB0DB982E0EDF5C35
:100160001BE1BAEC04F02A0EDF5C0BE1B6EC04F004
:1001700004EC05F003E1130E3FEC05F0BAEC04F0DB
:100180000BD0090EDB6A5BEC05F003E0CFEC05F069
:10019000FAD7090E3FEC05F0680EDF5C07E1BAEC18
:1001A00004F0680EDF5C1DE1030E18D0740EDF5CF6
:1001B00017E07A0EDF5C14E0480EDF5C06E0540EB8
:1001C000DF5C03E05A0EDF5C02E1020E07D06C0E2A
:1001D000DF5C03E06A0EDF5C04E1010E92EC05F0E7
:1001E000C9DBDF506E0A01E17FD31E0A01E192D123
:1001F000200A01E18FD13F0A01E149D11A0A01E148
:1002000046D10D0A01E143D1200A01E140D13A0A69
:1002100001E13DD1200A01E13AD1260A01E135D1BF
:100220000D0A01E132D11A0A01E1D9D0200A4AE0CF
:10023000300A1FE0460A0EE0250A01E083D3D950B8
:10024000F90FE96EFF0EDA20EA6E010EEE5E000E87
:10025000EE5AEE5AA0EC05F0250EE66E95DB03E1B2
:10026000151C01E169D39CEC05F001E26BD3DB2A9C
:1002700069D3080EDB6A040EDB50010806E2040EA7
:10028000DB0464EC05F0DB508BDB080EDB5009E08F
:10029000030EDB50010B05E172DB01E04DD3080ECC
:1002A000DB6A64DBEFCFDFFF14EC06F003E1151C23
:1002B00001E142D39CEC05F001E3DB2A60DB01E1C4
:1002C00041D33AD3070EDB5002080FE1E0EC05F012
:1002D000030EA7EC05F00E0EEECFDBFF0F0EEECFF8
:1002E000DBFF100EEECFDBFF20D0F70EDBCF17F0D9
:1002F000F80EDBCF18F0020E175E000E185AF70E3C
:1003000017C0DBFFF80E18C0DBFF17C0E9FF18C0ED
:10031000EAFF97EC05F0166A0E0E14C0DBFF0F0E15
:1003200015C0DBFF100E16C0DBFF0E0EDBCFE6FFA5
:100330000F0EDBCFE6FF100EDBCFE6FF9BEC08F0E5
:10034000E552E552E552130E07C0DBFF140E08C05C
:10035000DBFF060EDB5005E0130EDBEC05F001E2DF
:100360006ADBFFEC05F002E2130E37DBC2EC05F0AE
:1003700006E0040EDBEC05F002E2050E2EDB030EB8
:10038000DBB005D0FCDA01E0D7D2080EDB6A090E3B
:10039000DB6A0E0EDBCFF6FF0F0EDBCFF7FF100E82
:1003A000DBCFF8FF0800F550DF6EDF5014E005ECFE
:1003B00006F011E214EC06F003E1151C01E1BCD2D9
:1003C000BBDB01E3DB2A090EDB2AD9500E0FE96EF5
:1003D000000ECBDBE7D7D3DA01E1B4D2ADD2C6DA77
:1003E000110EEECFDBFF120EEDCFDBFF110EDBCFD8
:1003F000E6FF120EDBCFE6FF8DEC08F0E552E5528A
:10040000130EF3CFDBFF140EF4CFDBFF060EDB5031
:1004100004E0130ED0DB01E20EDBFFEC05F002E29C
:10042000130EDBDAAFDB05E0040EC5DB02E2050EDE
:10043000D4DA030EDBB005D0A2DA01E07DD2080EDB
:10044000DB6A090EDB6A110EDBCFE9FF120EDBCF90
:10045000EAFFEFCFDFFFDF5014E0D7DB12E2E4DB8F
:1004600003E1151C01E168D267DB01E3DB2A090E19
:10047000DB2A110EDB2ADBCFE9FF120EE8E3DB2AD1
:10048000E6D77DDA01E15ED257D2030EDB8E070E8E
:10049000DB0410E195DB040E5ADB0A0EEECFDBFF26
:1004A0000B0EEECFDBFF0C0EEECFDBFF0D0EEECF13
:1004B000DBFF6CD0070EDB5003082CE1030EDBAE34
:1004C0000DD0B2DA020E76DAEFCF14F0156A166AA2
:1004D000176A14AE39D01568166835D0F70EDBCF21
:1004E00015F0F80EDBCF16F0020E155E000E165A50
:1004F000F70E15C0DBFFF80E16C0DBFF15C0E9FFD5
:1005000016C0EAFFEFCF14F00A0E14C0DBFF0B0E8B
:10051000DB6A38D0070EDB50020809E1030EDBAEC0
:1005200004D059DB16AE10D00ED055DB0DD0030E23
:10053000DBAE12D079DA020E3DDAF9DA166A176A02
:1005400015AE02D016681768E2DA0C0E16C0DBFF93
:100550000D0E17C0DBFF1AD0F70EDBCF16F0F80E2A
:10056000DBCF17F0020E165E000E175AF70E16C0FC
:10057000DBFFF80E17C0DBFF16C0E9FF17C0EAFF6C
:10058000D6DAC5DA0C0EDB6A0D0EDB6A060EDB501E
:1005900005E1010EF36E050EF3CFDBFF150EDB6AEE
:1005A000160EDB6AD950370F146E000EDA20156E66
:1005B000390E14C0DBFF3A0E15C0DBFF380EDB6AC4
:1005C000080EDB6A0A0EAEDADF50780A12E0200A63
:1005D00010E0280A0CE0200A0AE03F0A06E00D0AB3
:1005E00002E0200A08E1020E05D0080E03D0080E32
:1005F000DF26100E97DA030EDBBE02D0DB92DB940F
:10060000DB50800B24E08ADAD890030EEB50000A0E
:1006100008E6000EEE5C000EEE58000EEE58000EDE
:10062000EE5815E213DA0B680C680D680E6855EC8D
:1006300008F00A0E02C0DBFF0B0E03C0DBFF0C0E3E
:1006400004C0DBFF0D0E05C0DBFF2D0E08D0030E2E
:10065000DBA202D02B0E03D0DBA408D0200EF36E59
:10066000170EF3CFDBFF150EDB2A02D0170EDB6A65
:10067000050EDB5003E1B7D901E189D0CC0E146E31
:10068000120E156E000E166E070EDBCF17F0186AED
:10069000196A1A6A17C00BF018C00CF019C00DF0D7
:1006A0001AC00EF0D3D9EDEC08F014500224F36E0A
:1006B00015500320F46E16500420F86EF4CFF7FFA7
:1006C000F3CFF6FF0800090EF5CFDBFF580EDF5C15
:1006D0000FE1610EF36E090E7BD90AE3200E146E52
:1006E000090EDBCFE7FF1450E75E090EE7CFDBFF13
:1006F000070EDBCF14F0156A166A176A0FDA14C0FA
:100700000BF015C00CF016C00DF017C00EF0EECFB8
:1007100006F0EECF07F0EECF08F0EFCF09F0EDECEA
:1007200008F009C0EDFF08C0EDFF07C0EDFF06C0EF
:10073000EFFF390EDBCFE9FFDB063A0EDBCFEAFF36
:1007400001E2DB06090EDBCFEFFF150EDB2A4BD9EA
:1007500095E1030EDBA61DD06F0EDF5C06E1C1D96B
:1007600018E3150EDB285BDA14D0780EDF5C09E0A5
:10077000580EDF5C06E0620EDF5C03E0420EDF5CD9
:1007800008E1020EF36E160EF3CFDBFF02D0150E5A
:10079000DB6A030EDB50100B0EE0040EDBCF14F00F
:1007A000050EDB50D880145406E2060EDB5003E140
:1007B000040EDB5034DA95D90AE2050EDBCFE7FFF1
:1007C000150EDB50E75E050EE7CFDBFF02D0050E0E
:1007D000DB6A040EDBCF14F0160E45D9D880145412
:1007E00014E2160EDBCFE6FF150EDBCFE6FF040E9C
:1007F000DBCFE6FF050EDB50E552E75CE552D88023
:10080000E754E552D880E7545FD9030EDB50010B63
:100810000BE1080EDB5008E0B2D801E08DD0080EE5
:10082000DB50BED8080EDB6A170EDB5007E088D914
:10083000170EF1D903E1151C01E17ED0160EDB5035
:1008400016E07ED9300EE66E9FD802E1151C74E0EA
:1008500077D9DFCFE6FF13EC08F0E552E552E55219
:10086000F4CF15F00001F31C02E1151C65E0050E44
:10087000DBCF14F0160EDB50D880145409E2050EBD
:10088000DBCFE7FF160EDB50E75E050EE7CFDBFFA1
:10089000300EE66E050ECBD94FE1390EDB2ADBCFE9
:1008A000E9FF3A0E01E3DB2ADBCFEAFF090EEFCFC7
:1008B000DBFFDB500EE044D9090EADD902E1151C77
:1008C0003BE0390EDB2ADBCFE9FF3A0EEDE3DB2A12
:1008D000EBD755D831E1160EDBCFE6FF080EC3D8B3
:1008E000E552E7245DD82ED0070EDB50030A1CE04A
:1008F000010A14E0030A07E07BD9DBCFEEFF020E0A
:10090000DBCFEDFF1FD0F5D8196A17AE02D01868FB
:1009100019682CD8BCD819C0EEFF14D0EAD817BE7D
:10092000186824D8B4D80ED063D9DBCFEFFF0AD033
:100930007BD905E1151C03E1F368F46810D0FCD8FD
:1009400001E3DB2A79D941EF00F0010EDBCF14F08F
:10095000020EDBCF15F014C0F3FF15C0F4FF3B0E01
:10096000E15C02E2E16AE552E16ECBD029D9020EE8
:10097000A7EF05F061D90800F550DF6E1200200ED8
:10098000E66E080E17EF06F013EC08F0E552E5529C
:10099000E552F3CF14F0F4CF15F00001F31C120070
:1009A000146E156AD950010F4DD91450EE2615500A
:1009B000ED221200185E000E195AF70E18C0DBFF68
:1009C000F80E19C0DBFF18C0E9FF19C0EAFF1200DA
:1009D000DBCFF4FFF350F45C1200DB50E76E040E43
:1009E000E7CFDBFF12000A0EDBCF14F00B0EDBCFDC
:1009F00015F00C0EDBCF16F00D0EDBCF17F01450F8
:100A00001510161017101200130EEECFDBFF140E88
:100A1000EDCFDBFF130EDBCF14F0140EDBCF15F0A0
:100A20000001800E15141200F70EDBCF18F0F80E3F
:100A3000DBCF19F01200050EDB50E66ED950130F14
:100A400001D9E552E750EE6EED6A12000A0EDBCFD7
:100A500006F00B0EDBCF07F00C0EDBCF08F00D0E0F
:100A6000DBCF09F01200DBCFE6FF150EDBCFE6FF90
:100A7000050EDB50E552E724E552E7241200DB5077
:100A8000CED8010EF36E060EF3CFDBFF1200EE5050
:100A9000EFCFEAFFE96E16C0EEFF17C0EEFF18C0F9
:100AA000EEFF1200D9CFE6FFDACFE6FFE1CFD9FFA4
:100AB000E2CFDAFF1200DFCFE6FFE66A28EC09F0AA
:100AC000E552E552F3501200E76E080EE7CFDBFF68
:100AD0001200EECF14F0EECF15F0EFCF16F0176A3C
:100AE0001200050EDBCF14F0150EDB50D880145425
:100AF0001200010EDBCF16F0020EDBCF17F0186AE2
:100B00001200E552E5CFDAFFE7CFD9FF12000A0E57
:100B100014C0DBFF0B0E15C0DBFF1200D9500A0F0B
:100B200022EF06F0F36E070EF3CFDBFF1200EECFDD
:100B300014F0EFCF15F01200010EDB2A020E1200A6
:100B4000FC0EDBCFE6FFFD0EDBCFE6FF1200145EEE
:100B5000000E155AF70E14C0DBFFF80E15C0DBFFB0
:100B600014C0E9FF15C0EAFF1200DA20EA6EEF2A8E
:100B7000EECFF6FF000EEF22EECFF7FFEF22EECF23
:100B8000F8FF1200040EDBCFE6FF130EDB50E55238
:100B9000E75C9ADFDB5004DF060EDB501200090E23
:100BA000DB500A0DF350DF24D00FE76E090EE7CFBC
:100BB000DBFFBAEF04F0DB50F36E050EE8EF04F054
:100BC000F70EDBCF14F0F80EDBCF15F01200DFCFFD
:100BD000E6FFC4EF04F028DF030EECDE69EF05F05A
:100BE00016EC00F0E552E552E552E552000912001C
:100BF000BDDEEE50EFCFEAFFE96E010E1200130EDC
:100C0000DB50F36E040EE8EF04F0040EDB50F36EDD
:100C1000090EE8EF04F0DBCFE6FFC4EF04F0E76E67
:100C2000050EE7CFDBFF12008BDFE7EF05F0DBCF30
:100C3000E6FF86DFF0EF05F0D950F90FE96EFF0E01
:0E0C4000B5EF05F0E96E000EDA20EA6E120044
:020C4E00190E7D
:100C5000AF6EC00E9410946EAC98AB8EAC9CB898EE
:100C6000AC8A1200D9CFE6FFE1CFD9FF030EE1260F
:100C7000010EDB6A020EDB6A010EDBCF14F0DB2A09
:100C8000020EDBCF15F001E3DB2AFD0EDB5014244E
:100C9000E96EFE0EDB501520EA6EEFCFDFFFDF506E
:100CA000AD6E050EE66E3AEC09F0E552010EDBCFB3
:100CB00014F0020EDBCF15F0FD0EDB501424E96EAC
:100CC000FE0EDB501520EA6EEF50D6E1030EE15C1C
:100CD00002E2E16AE552E16EE552E7CFD9FF120088
:100CE000D9CFE6FFE1CFD9FFFE0EDB50AD6E050E8A
:100CF000E66E3AEC09F0E552E552E7CFD9FF120073
:100D0000D9CFE6FFE1CFD9FF140EE126100EDB6A42
:100D1000110EDB6A120EDB6A130EDB6AD388D39ADC
:100D2000D38C926A936A93DFECEC06F02C0EF36E90
:100D3000120EF3CFDBFF010EF36E130EF3CFDBFFCA
:100D4000120EDBCF14F0130EDBCF15F00001800E76
:100D5000151437E15FEC07F0120EDBCFE6FF130E40
:100D6000DBCFE6FFEC0E146E120E156E166A14C081
:100D7000E6FF15C0E6FF16C0E6FFD9CFE6FFDACFE3
:100D8000E6FF6EEC07F0176E070EE15E1750D9CF45
:100D9000E6FFDACFE6FF0FEC07F0E552E552010E71
:100DA000E66E3AEC09F0E552D9CFE6FFDACFE6FF7E
:100DB00059DFE552E552120EDB06130E01E2DB06A7
:100DC000BFD7FFD7140EE15C02E2E16AE552E16EA3
:080DD000E552E7CFD9FF120044
:080DD800320EE66E3AEC09F060
:100DE000E552816A380EE66E55D8E552140EE66E6D
:100DF0003AEC09F0E55268D8140EE66E3AEC09F0C8
:100E0000E552060EE66E46D8E552640EE66E11EC2B
:100E100009F0E5520C0EE66E3DD8E5521200D9CF2E
:100E2000E6FFE1CFD9FF020EE126DE6ADD6A808EA1
:100E30008092DE6ADD6AFD0EDBCF14F0FE0EDBCFA2
:100E400015F0DE501424E96EDD501520EA6EEF50E7
:100E500017E0FD0EDBCF14F0FE0EDBCF15F0DE50F9
:100E60001424E96EDD501520EA6EEF50816E808407
:100E7000809400000000DF2A010E01E3DB2ADBD7AB
:100E8000020EE15C02E2E16AE552E16EE552E7CF73
:100E9000D9FF1200D9CFE6FFE1CFD9FFFE0EDB501C
:100EA000816E809E809280848094816AE552E7CF33
:100EB000D9FF1200800EE66EEDDFE5521200C00E83
:100EC000E66EE8DFE5521200010EE66EE3DFE55262
:0C0ED000010EE66E3AEC09F0E55212004B
:040EDC00D9CFE6FF85
:100EE000DACFE6FFE1CFD9FFE2CFDAFFE652E652F2
:100EF000E652E652D950F90F146EFF0EDA20156E45
:100F0000020E14C0DBFF030E15C0DBFF020EDBCFA9
:100F1000E6FF030EDBCFE6FFF90EDBCFE6FFFA0EAE
:100F2000DBCFE6FFFB0EDBCFE6FFD950FC0FE66E12
:100F3000FF0EDA20E66E2CEC00F0146E070EE15C7A
:100F400002E2E16AE552E16E1450F3CFDEFFF4CF26
:100F5000DDFFFC0EDBCFE9FFFD0EDBCFEAFFEF6A22
:100F6000DECF14F0DDCF15F014C0F3FF15C0F4FF91
:100F7000040EE15C02E2E16AE552E16EE552E5CF82
:080F8000DAFFE7CFD9FF1200F0
:080F88002A0EF66E000EF76E52
:100F9000000EF86E00010900F550656F0900F5506C
:100FA000666F03E1656701D03DD00900F550606FC1
:100FB0000900F550616F0900F550626F09000900E2
:100FC000F550E96E0900F550EA6E090009000900C4
:100FD000F550636F0900F550646F09000900F6CF02
:100FE00067F0F7CF68F0F8CF69F060C0F6FF61C036
:100FF000F7FF62C0F8FF0001635302E1645307E0AA
:101000000900F550EE6E6307F8E26407F9D767C090
:10101000F6FF68C0F7FF69C0F8FF00016507000E22
:06102000665BBFD7120061
:0A102600D9CFE6FFDACFE6FFE1CFF5
:10103000D9FFE2CFDAFFFB0EDBCF14F0FC0EDBCFE3
:1010400015F00001800E15141AE1FB0EDBCFE9FF4D
:10105000FC0EDBCFEAFFEECFF3FFEDCFF4FFEE2A7D
:10106000000EEF22F3CFE9FFF4CFEAFFFD0EDBCF56
:10107000EFFFEF50156AF36E15C0F4FF10D0FB0EB2
:10108000DB50FE0806E1FD0EDBCFE6FF58EC09F071
:1010900005D0FD0EDBCFE6FF78EC09F0E552E55216
:0A10A000E5CFDAFFE7CFD9FF120019
:0610AA0006500B02F3CF1B
:1010B00002F0F4CF03F00C02F3500326000EF420EC
:1010C000046E06500D02F3500426000EF420056E47
:1010D00006500E02F350052607500B02F35003266C
:1010E000F4500422000E052207500C02F35004268F
:1010F000F450052207500D02F350052608500B024C
:10110000F3500426F450052208500C02F350052633
:0A11100009500B02F35005261200EF
:06111A00FE0EE3CFE9FF29
:10112000FF0EE3CFEAFFF36AF46AEE5203E0F34AFC
:10113000F42AFBD71200FF0EE3CFF8FFE552FF0EB3
:10114000E3CFF7FFE552FF0EE3CFF6FFE552E66A85
:10115000E66AE66A0900F55209E0FD0EE32A05E1B8
:10116000FE0EE32A02E1FF0EE32AF4D7FD0EE3CFE1
:1011700007F0FE0EE3CF08F0FF0EE3CF09F01200F8
:1011800009C013F008C012F008500D02F4CF07F0A8
:10119000F3CF06F009500E02F4CF09F0F3CF08F0B8
:1011A0000D02F3500726F4500822E86A0922125073
:1011B0000E02F3500726F4500822E86A09220EAE08
:1011C000E6EF08F01250085E1350095A13AE000CF7
:0A11D0000D50085E0E50095A000C85
:0611DA00056A046A036AC5
:1011E000026A200EE76ED8900636073608360936B2
:1011F00002360336043605360B50025C0C50035899
:101200000D5004580E50055809E30B50025E0C5067
:10121000035A0D50045A0E50055A062AE72EE4D7F9
:021220001200BA
:0E122200FF0EE3501C6EEF0E01D0F30EE76ED0
:10123000E72E18EF09F00C0E1B6EE76AE72E1EEF83
:1012400009F01B2E1DEF09F01C2E16EF09F01200FD
:10125000F36AF46AFF0EE124E96EFF0EE220EA6E03
:10126000ED6607D02F0EEF6404D03A0EEF6001D088
:04127000F32A12004B
:0C127400FF0EE3501C6E480E01D04C0E23
:10128000E76EE72EFED7E76AE72EFED71C2EF7D7CC
:041290000000120048
:0C12940015EE00F025EE00F0F86A019C59
:1012A000C4EC07F079EC09F080EC06F0FBD71200F3
:1012B000FF0EE350ACBA04D0AF6AAB8EAC8A949CFC
:0C12C000ACA2FED7AD6EF36EF46A120013
:0412CC003031323358
:0D12D0003435363738396162636465660075
:0212DE0000EE20
:0C12E00000F00F0EEE6AEA62FDD712006B
:0412EC002534640041
:0212F0001200EA
:0212F2001200E8
:020000040030CA
:0100010008F6
:010006008178
:00000001FF
