:020000040000FA
:10001000000000308A0018288000030881000A08C8
:10002000820002088A0001088300800E000E090089
:1000300000008312031386018312031385018316C4
:1000400003018500831224288508F039F1388500E2
:1000500064000000C830F0006430F100F103031DBB
:100060002E286400F003031D2C2864008508F03955
:10007000F2388500640000003230F0003230F100C8
:10008000F103031D40286400F003031D3E286400B3
:100090008508F039F4388500640000003230F00043
:1000A0003230F100F103031D52286400F003031DF8
:0600B00050286400242822
:02400E00B23FBF
:00000001FF
