:020000040000FA
:06000000A7EF01F0120061
:020006000000F8
:060008002AEF00F01200D7
:02000E001200DE
:0600180079EF00F0120078
:02001E0011D8F7
:10002000E2D8C4D889808982B5EC01F000016B6FF9
:10003000C7A005D0B5EC01F0030801E18992F8D71B
:1000400012008F0ED3142809D36E926A936A180E89
:10005000946E1200DACFE4FFE2CFDAFFE9CFE4FFDB
:10006000EACFE4FFF6CFE4FFF7CFE4FFF5CFE4FFFC
:10007000F3CFE4FFF4CFE4FFFACFE4FF00EE00F0AB
:10008000020EE80403E3EECFE4FFFBD700EE02F03C
:10009000000EE80403E3EECFE4FFFBD7E6529E96A2
:1000A000B5EC01F0040801E18990E55200EE01F0A1
:1000B000000EE80403E3E5CFEDFFFBD700EE01F00F
:1000C000020EE80403E3E5CFEDFFFBD7E5CFFAFF2F
:1000D000E5CFF4FFE5CFF3FFE5CFF5FFE5CFF7FF81
:1000E000E5CFF6FFE5CFEAFFE5CFE9FFE5CFDAFFA1
:1000F0001100D8CFE4FFE0CFE4FFE46EDACFE4FFF5
:10010000E2CFDAFFE9CFE4FFEACFE4FFF6CFE4FF86
:10011000F7CFE4FFF5CFE4FFF3CFE4FFF4CFE4FF44
:10012000FACFE4FF00EE00F0020EE80403E3EECFA6
:10013000E4FFFBD700EE02F0000EE80403E3EECF8D
:10014000E4FFFBD7E6529E90E66AF00EE66E6FEC97
:1001500001F0E552E552C67A8972E55200EE01F0EF
:10016000000EE80403E3E5CFEDFFFBD700EE01F05E
:10017000020EE80403E3E5CFEDFFFBD7E5CFFAFF7E
:10018000E5CFF4FFE5CFF3FFE5CFF5FFE5CFF7FFD0
:10019000E5CFF6FFE5CFEAFFE5CFE9FFE5CFDAFFF0
:1001A000E550E5CFE0FFE5CFD8FF1000D59ECD901C
:1001B000C50EE66E4EEC01F0E552D08EF1849F90B4
:1001C000F29A9D80E66A800EE66E8BEC01F0E552B5
:1001D000E552E66AF00EE66E6FEC01F0E552E5528C
:1001E000D59ECD801200C68AC690C682C684C696A9
:0E01F000FE0EC86E9D869F86F28CF28E120067
:0201FE00060EEB
:10020000F66E000EF76E000EF86E00010900F55054
:10021000656F0900F550666F03E1656701D03DD059
:100220000900F550606F0900F550616F0900F55045
:10023000626F09000900F550E96E0900F550EA6E99
:10024000090009000900F550636F0900F550646F5B
:1002500009000900F6CF67F0F7CF68F0F8CF69F032
:1002600060C0F6FF61C0F7FF62C0F8FF0001635392
:1002700002E1645307E00900F550EE6E6307F8E20F
:100280006407F9D767C0F6FF68C0F7FF69C0F8FFD9
:0C02900000016507000E665BBFD712007E
:04029C00D9CFE6FFD1
:1002A000DACFE6FFE1CFD9FFE2CFDAFFFD0EDB5078
:1002B0007E0BCD6EFD0EDBAC02D0CD8E01D0CD9E7F
:1002C000CF6ACE6A9E90DBAE02D09D8001D09D9019
:0E02D000CD80E552E5CFDAFFE7CFD9FF12006F
:0202DE00D9CF76
:1002E000E6FFDACFE6FFE1CFD9FFE2CFDAFFE65251
:1002F000E652FC0EDBCFDEFFDBCFDDFF010EDB5075
:10030000CF6EDF50CE6EE552E552E552E5CFDAFF13
:06031000E7CFD9FF120047
:0A031600D9CFE6FFDACFE6FFE1CF12
:10032000D9FFE2CFDAFFE652E652FC0EDBCFDEFF6A
:10033000DBCFDDFF010EDB50D76EDF50D66EE5520E
:0E034000E552E552E5CFDAFFE7CFD9FF120014
:02034E0015EEAA
:1003500000F025EE00F0F86A019CFFEC00F007ECDD
:0A03600000F00FEC00F0FBD71200D4
:06036A000F0EC614080886
:1003700004E00F0EC6140B0801E1C586C7A0FED726
:04038000C95012004E
:0C03840000EE00F00F0EEE6AEA62FDD7FA
:02039000120059
:020000040030CA
:0100010008F6
:010006008178
:00000001FF
